{
  "_format": "hh-sol-artifact-1",
  "contractName": "ArtNFT",
  "sourceName": "contracts/ArtNFT.sol",
  "abi": [
    {
      "inputs": [
        {
          "internalType": "address",
          "name": "wordNft",
          "type": "address"
        },
        {
          "internalType": "string",
          "name": "metadata",
          "type": "string"
        },
        {
          "internalType": "string",
          "name": "contractMetadata",
          "type": "string"
        }
      ],
      "stateMutability": "nonpayable",
      "type": "constructor"
    },
    {
      "anonymous": false,
      "inputs": [
        {
          "indexed": true,
          "internalType": "address",
          "name": "owner",
          "type": "address"
        },
        {
          "indexed": true,
          "internalType": "address",
          "name": "approved",
          "type": "address"
        },
        {
          "indexed": true,
          "internalType": "uint256",
          "name": "tokenId",
          "type": "uint256"
        }
      ],
      "name": "Approval",
      "type": "event"
    },
    {
      "anonymous": false,
      "inputs": [
        {
          "indexed": true,
          "internalType": "address",
          "name": "owner",
          "type": "address"
        },
        {
          "indexed": true,
          "internalType": "address",
          "name": "operator",
          "type": "address"
        },
        {
          "indexed": false,
          "internalType": "bool",
          "name": "approved",
          "type": "bool"
        }
      ],
      "name": "ApprovalForAll",
      "type": "event"
    },
    {
      "anonymous": false,
      "inputs": [
        {
          "indexed": false,
          "internalType": "uint256",
          "name": "id",
          "type": "uint256"
        },
        {
          "indexed": false,
          "internalType": "uint256[]",
          "name": "idBurned",
          "type": "uint256[]"
        }
      ],
      "name": "CraftEvent",
      "type": "event"
    },
    {
      "anonymous": false,
      "inputs": [
        {
          "indexed": false,
          "internalType": "uint256",
          "name": "id",
          "type": "uint256"
        },
        {
          "indexed": false,
          "internalType": "uint256",
          "name": "idBurned",
          "type": "uint256"
        }
      ],
      "name": "MergeEvent",
      "type": "event"
    },
    {
      "anonymous": false,
      "inputs": [
        {
          "indexed": false,
          "internalType": "address",
          "name": "account",
          "type": "address"
        }
      ],
      "name": "Paused",
      "type": "event"
    },
    {
      "anonymous": false,
      "inputs": [
        {
          "indexed": true,
          "internalType": "address",
          "name": "from",
          "type": "address"
        },
        {
          "indexed": true,
          "internalType": "address",
          "name": "to",
          "type": "address"
        },
        {
          "indexed": true,
          "internalType": "uint256",
          "name": "tokenId",
          "type": "uint256"
        }
      ],
      "name": "Transfer",
      "type": "event"
    },
    {
      "anonymous": false,
      "inputs": [
        {
          "indexed": false,
          "internalType": "address",
          "name": "account",
          "type": "address"
        }
      ],
      "name": "Unpaused",
      "type": "event"
    },
    {
      "inputs": [
        {
          "internalType": "address",
          "name": "user",
          "type": "address"
        }
      ],
      "name": "addMaintainer",
      "outputs": [],
      "stateMutability": "nonpayable",
      "type": "function"
    },
    {
      "inputs": [
        {
          "internalType": "address",
          "name": "to",
          "type": "address"
        },
        {
          "internalType": "uint256",
          "name": "tokenId",
          "type": "uint256"
        }
      ],
      "name": "approve",
      "outputs": [],
      "stateMutability": "nonpayable",
      "type": "function"
    },
    {
      "inputs": [
        {
          "internalType": "address",
          "name": "owner",
          "type": "address"
        }
      ],
      "name": "balanceOf",
      "outputs": [
        {
          "internalType": "uint256",
          "name": "",
          "type": "uint256"
        }
      ],
      "stateMutability": "view",
      "type": "function"
    },
    {
      "inputs": [
        {
          "internalType": "uint256",
          "name": "tokenId",
          "type": "uint256"
        }
      ],
      "name": "burn",
      "outputs": [],
      "stateMutability": "nonpayable",
      "type": "function"
    },
    {
      "inputs": [],
      "name": "contractURI",
      "outputs": [
        {
          "internalType": "string",
          "name": "",
          "type": "string"
        }
      ],
      "stateMutability": "view",
      "type": "function"
    },
    {
      "inputs": [
        {
          "internalType": "uint256[]",
          "name": "wordIs",
          "type": "uint256[]"
        }
      ],
      "name": "craft",
      "outputs": [],
      "stateMutability": "nonpayable",
      "type": "function"
    },
    {
      "inputs": [
        {
          "internalType": "uint256",
          "name": "tokenId",
          "type": "uint256"
        }
      ],
      "name": "getApproved",
      "outputs": [
        {
          "internalType": "address",
          "name": "",
          "type": "address"
        }
      ],
      "stateMutability": "view",
      "type": "function"
    },
    {
      "inputs": [
        {
          "internalType": "address",
          "name": "owner",
          "type": "address"
        },
        {
          "internalType": "address",
          "name": "operator",
          "type": "address"
        }
      ],
      "name": "isApprovedForAll",
      "outputs": [
        {
          "internalType": "bool",
          "name": "",
          "type": "bool"
        }
      ],
      "stateMutability": "view",
      "type": "function"
    },
    {
      "inputs": [
        {
          "internalType": "uint256",
          "name": "art1",
          "type": "uint256"
        },
        {
          "internalType": "uint256",
          "name": "art2",
          "type": "uint256"
        }
      ],
      "name": "merge",
      "outputs": [],
      "stateMutability": "nonpayable",
      "type": "function"
    },
    {
      "inputs": [],
      "name": "name",
      "outputs": [
        {
          "internalType": "string",
          "name": "",
          "type": "string"
        }
      ],
      "stateMutability": "view",
      "type": "function"
    },
    {
      "inputs": [
        {
          "internalType": "uint256",
          "name": "tokenId",
          "type": "uint256"
        }
      ],
      "name": "ownerOf",
      "outputs": [
        {
          "internalType": "address",
          "name": "",
          "type": "address"
        }
      ],
      "stateMutability": "view",
      "type": "function"
    },
    {
      "inputs": [],
      "name": "pause",
      "outputs": [],
      "stateMutability": "nonpayable",
      "type": "function"
    },
    {
      "inputs": [],
      "name": "paused",
      "outputs": [
        {
          "internalType": "bool",
          "name": "",
          "type": "bool"
        }
      ],
      "stateMutability": "view",
      "type": "function"
    },
    {
      "inputs": [
        {
          "internalType": "address",
          "name": "user",
          "type": "address"
        }
      ],
      "name": "removeMaintainer",
      "outputs": [],
      "stateMutability": "nonpayable",
      "type": "function"
    },
    {
      "inputs": [
        {
          "internalType": "address",
          "name": "from",
          "type": "address"
        },
        {
          "internalType": "address",
          "name": "to",
          "type": "address"
        },
        {
          "internalType": "uint256",
          "name": "tokenId",
          "type": "uint256"
        }
      ],
      "name": "safeTransferFrom",
      "outputs": [],
      "stateMutability": "nonpayable",
      "type": "function"
    },
    {
      "inputs": [
        {
          "internalType": "address",
          "name": "from",
          "type": "address"
        },
        {
          "internalType": "address",
          "name": "to",
          "type": "address"
        },
        {
          "internalType": "uint256",
          "name": "tokenId",
          "type": "uint256"
        },
        {
          "internalType": "bytes",
          "name": "data",
          "type": "bytes"
        }
      ],
      "name": "safeTransferFrom",
      "outputs": [],
      "stateMutability": "nonpayable",
      "type": "function"
    },
    {
      "inputs": [
        {
          "internalType": "address",
          "name": "from",
          "type": "address"
        },
        {
          "internalType": "address",
          "name": "to",
          "type": "address"
        },
        {
          "internalType": "uint256[]",
          "name": "tokenIds",
          "type": "uint256[]"
        }
      ],
      "name": "safeTransferFromBatch",
      "outputs": [],
      "stateMutability": "nonpayable",
      "type": "function"
    },
    {
      "inputs": [
        {
          "internalType": "address",
          "name": "from",
          "type": "address"
        },
        {
          "internalType": "address[]",
          "name": "receivers",
          "type": "address[]"
        },
        {
          "internalType": "uint256[]",
          "name": "tokenIds",
          "type": "uint256[]"
        }
      ],
      "name": "safeTransferFromToAddresses",
      "outputs": [],
      "stateMutability": "nonpayable",
      "type": "function"
    },
    {
      "inputs": [
        {
          "internalType": "address",
          "name": "operator",
          "type": "address"
        },
        {
          "internalType": "bool",
          "name": "approved",
          "type": "bool"
        }
      ],
      "name": "setApprovalForAll",
      "outputs": [],
      "stateMutability": "nonpayable",
      "type": "function"
    },
    {
      "inputs": [
        {
          "internalType": "string",
          "name": "newBaseURI",
          "type": "string"
        }
      ],
      "name": "setBaseURI",
      "outputs": [],
      "stateMutability": "nonpayable",
      "type": "function"
    },
    {
      "inputs": [
        {
          "internalType": "bytes4",
          "name": "interfaceId",
          "type": "bytes4"
        }
      ],
      "name": "supportsInterface",
      "outputs": [
        {
          "internalType": "bool",
          "name": "",
          "type": "bool"
        }
      ],
      "stateMutability": "view",
      "type": "function"
    },
    {
      "inputs": [],
      "name": "symbol",
      "outputs": [
        {
          "internalType": "string",
          "name": "",
          "type": "string"
        }
      ],
      "stateMutability": "view",
      "type": "function"
    },
    {
      "inputs": [
        {
          "internalType": "uint256",
          "name": "tokenId",
          "type": "uint256"
        }
      ],
      "name": "tokenURI",
      "outputs": [
        {
          "internalType": "string",
          "name": "",
          "type": "string"
        }
      ],
      "stateMutability": "view",
      "type": "function"
    },
    {
      "inputs": [
        {
          "internalType": "address",
          "name": "from",
          "type": "address"
        },
        {
          "internalType": "address",
          "name": "to",
          "type": "address"
        },
        {
          "internalType": "uint256",
          "name": "tokenId",
          "type": "uint256"
        }
      ],
      "name": "transferFrom",
      "outputs": [],
      "stateMutability": "nonpayable",
      "type": "function"
    },
    {
      "inputs": [],
      "name": "unpause",
      "outputs": [],
      "stateMutability": "nonpayable",
      "type": "function"
    }
  ],
  "bytecode": "0x6080604052600a80546001600160a01b03191661dead1790553480156200002557600080fd5b50604051620024cd380380620024cd8339810160408190526200004891620002a1565b604080518082018252600e81526d15dbdc991cc815195b1b08105c9d60921b60208083019182528351808501909452600384526210549560ea1b908401528151919291839183916200009d9160009162000148565b508051620000b390600190602084019062000148565b5050600680546001600160a81b03191661010033810291909117918290556001600160a01b03910481166000908152600760209081526040909120805460ff19166001179055600b80546001600160a01b03191692891692909217909155855162000128945060089350908601915062000148565b5080516200013e90600990602084019062000148565b505050506200037a565b828054620001569062000327565b90600052602060002090601f0160209004810192826200017a5760008555620001c5565b82601f106200019557805160ff1916838001178555620001c5565b82800160010185558215620001c5579182015b82811115620001c5578251825591602001919060010190620001a8565b50620001d3929150620001d7565b5090565b5b80821115620001d35760008155600101620001d8565b600082601f830112620001ff578081fd5b81516001600160401b03808211156200021c576200021c62000364565b604051601f8301601f19908116603f0116810190828211818310171562000247576200024762000364565b8160405283815260209250868385880101111562000263578485fd5b8491505b8382101562000286578582018301518183018401529082019062000267565b838211156200029757848385830101525b9695505050505050565b600080600060608486031215620002b6578283fd5b83516001600160a01b0381168114620002cd578384fd5b60208501519093506001600160401b0380821115620002ea578384fd5b620002f887838801620001ee565b935060408601519150808211156200030e578283fd5b506200031d86828701620001ee565b9150509250925092565b600181811c908216806200033c57607f821691505b602082108114156200035e57634e487b7160e01b600052602260045260246000fd5b50919050565b634e487b7160e01b600052604160045260246000fd5b612143806200038a6000396000f3fe608060405234801561001057600080fd5b50600436106101735760003560e01c80636b453c1f116100de578063ad2a460311610097578063d1c2babb11610071578063d1c2babb1461031d578063d8baf7cf14610330578063e8a3d48514610343578063e985e9c51461034b57600080fd5b8063ad2a4603146102e4578063b88d4fde146102f7578063c87b56dd1461030a57600080fd5b80636b453c1f1461027a57806370a082311461028d57806379058720146102ae5780638456cb59146102c157806395d89b41146102c9578063a22cb465146102d157600080fd5b80633f4ba83a116101305780633f4ba83a1461021b57806342842e0e1461022357806342966c681461023657806355f804b3146102495780635c975abb1461025c5780636352211e1461026757600080fd5b806301ffc9a71461017857806306fdde03146101a0578063081812fc146101b5578063095ea7b3146101e057806323b872dd146101f557806338aa381514610208575b600080fd5b61018b610186366004611d02565b610387565b60405190151581526020015b60405180910390f35b6101a86103d9565b6040516101979190611e51565b6101c86101c3366004611d80565b61046b565b6040516001600160a01b039091168152602001610197565b6101f36101ee366004611c15565b610492565b005b6101f3610203366004611aad565b6105ad565b6101f3610216366004611a4e565b6105df565b6101f3610634565b6101f3610231366004611aad565b61066d565b6101f3610244366004611d80565b610688565b6101f3610257366004611d3a565b6106b9565b60065460ff1661018b565b6101c8610275366004611d80565b6106ff565b6101f3610288366004611a02565b61075f565b6102a061029b366004611a02565b6107b2565b604051908152602001610197565b6101f36102bc366004611c3e565b610838565b6101f3610ace565b6101a8610b05565b6101f36102df366004611bdf565b610b14565b6101f36102f2366004611b61565b610b1f565b6101f3610305366004611ae8565b610b9d565b6101a8610318366004611d80565b610bd5565b6101f361032b366004611d98565b610c3c565b6101f361033e366004611a02565b610cd1565b6101a8610d90565b61018b610359366004611a1c565b6001600160a01b03918216600090815260056020908152604080832093909416825291909152205460ff1690565b60006001600160e01b031982166380ac58cd60e01b14806103b857506001600160e01b03198216635b5e139f60e01b145b806103d357506301ffc9a760e01b6001600160e01b03198316145b92915050565b6060600080546103e890612067565b80601f016020809104026020016040519081016040528092919081815260200182805461041490612067565b80156104615780601f1061043657610100808354040283529160200191610461565b820191906000526020600020905b81548152906001019060200180831161044457829003601f168201915b5050505050905090565b600061047682610d9f565b506000908152600460205260409020546001600160a01b031690565b600061049d826106ff565b9050806001600160a01b0316836001600160a01b031614156105105760405162461bcd60e51b815260206004820152602160248201527f4552433732313a20617070726f76616c20746f2063757272656e74206f776e656044820152603960f91b60648201526084015b60405180910390fd5b336001600160a01b038216148061052c575061052c8133610359565b61059e5760405162461bcd60e51b815260206004820152603d60248201527f4552433732313a20617070726f76652063616c6c6572206973206e6f7420746f60448201527f6b656e206f776e6572206f7220617070726f76656420666f7220616c6c0000006064820152608401610507565b6105a88383610dfe565b505050565b6105b8335b82610e6c565b6105d45760405162461bcd60e51b815260040161050790611e64565b6105a8838383610eeb565b60005b8181101561062d5761061b858585858581811061060f57634e487b7160e01b600052603260045260246000fd5b9050602002013561066d565b80610625816120a2565b9150506105e2565b5050505050565b3360009081526007602052604090205460ff166106635760405162461bcd60e51b815260040161050790611f48565b61066b61105c565b565b6105a883838360405180602001604052806000815250610b9d565b610691336105b2565b6106ad5760405162461bcd60e51b815260040161050790611e64565b6106b6816110ae565b50565b3360009081526007602052604090205460ff166106e85760405162461bcd60e51b815260040161050790611f48565b80516106fb9060089060208401906118ab565b5050565b6000818152600260205260408120546001600160a01b0316806103d35760405162461bcd60e51b8152602060048201526018602482015277115490cdcc8c4e881a5b9d985b1a59081d1bdad95b88125160421b6044820152606401610507565b3360009081526007602052604090205460ff1661078e5760405162461bcd60e51b815260040161050790611f48565b6001600160a01b03166000908152600760205260409020805460ff19166001179055565b60006001600160a01b03821661081c5760405162461bcd60e51b815260206004820152602960248201527f4552433732313a2061646472657373207a65726f206973206e6f7420612076616044820152683634b21037bbb732b960b91b6064820152608401610507565b506001600160a01b031660009081526003602052604090205490565b600b546001600160a01b031663e985e9c5336040516001600160e01b031960e084901b1681526001600160a01b03909116600482015230602482015260440160206040518083038186803b15801561088f57600080fd5b505afa1580156108a3573d6000803e3d6000fd5b505050506040513d601f19601f820116820180604052508101906108c79190611ce6565b6109135760405162461bcd60e51b815260206004820152601960248201527f41525420636f6e7472616374206e6f7420617070726f766564000000000000006044820152606401610507565b6002815110156109655760405162461bcd60e51b815260206004820152601960248201527f52657175697265206174206c65617374203220776f7264732e000000000000006044820152606401610507565b805160005b81811015610a3657600b54600a5484516001600160a01b03928316926342842e0e9233929116908790869081106109b157634e487b7160e01b600052603260045260246000fd5b60209081029190910101516040516001600160e01b031960e086901b1681526001600160a01b0393841660048201529290911660248301526044820152606401600060405180830381600087803b158015610a0b57600080fd5b505af1158015610a1f573d6000803e3d6000fd5b505050508080610a2e906120a2565b91505061096a565b50610a693383600081518110610a5c57634e487b7160e01b600052603260045260246000fd5b6020026020010151611151565b7f88fbf0d2001be2579ebb7ace23691e72e6c4361f46c9ac70bbd05a0ef51fe73682600081518110610aab57634e487b7160e01b600052603260045260246000fd5b602002602001015183604051610ac2929190611f8e565b60405180910390a15050565b3360009081526007602052604090205460ff16610afd5760405162461bcd60e51b815260040161050790611f48565b61066b61116b565b6060600180546103e890612067565b6106fb3383836111a8565b60005b83811015610b9557610b8386868684818110610b4e57634e487b7160e01b600052603260045260246000fd5b9050602002016020810190610b639190611a02565b85858581811061060f57634e487b7160e01b600052603260045260246000fd5b80610b8d816120a2565b915050610b22565b505050505050565b610ba73383610e6c565b610bc35760405162461bcd60e51b815260040161050790611e64565b610bcf84848484611277565b50505050565b6060610be082610d9f565b6000610bea6112aa565b90506000815111610c0a5760405180602001604052806000815250610c35565b80610c14846112b9565b604051602001610c25929190611de5565b6040516020818303038152906040525b9392505050565b610c463383610e6c565b610c925760405162461bcd60e51b815260206004820152601960248201527f43616c6c6572206973206e6f7420746f6b656e206f776e6572000000000000006044820152606401610507565b610c9b81610688565b60408051838152602081018390527f6559cf0f050232202a16dc144f40248fe4c6a2130d57957d96afa7f24542922b9101610ac2565b3360009081526007602052604090205460ff16610d005760405162461bcd60e51b815260040161050790611f48565b6006546001600160a01b03828116610100909204161415610d6f5760405162461bcd60e51b815260206004820152602360248201527f4d61696e7461696e65723a2061646d696e2063616e6e6f742062652072656d6f6044820152621d995960ea1b6064820152608401610507565b6001600160a01b03166000908152600760205260409020805460ff19169055565b6060600980546103e890612067565b6000818152600260205260409020546001600160a01b03166106b65760405162461bcd60e51b8152602060048201526018602482015277115490cdcc8c4e881a5b9d985b1a59081d1bdad95b88125160421b6044820152606401610507565b600081815260046020526040902080546001600160a01b0319166001600160a01b0384169081179091558190610e33826106ff565b6001600160a01b03167f8c5be1e5ebec7d5bd14f71427d1e84f3dd0314c0f7b2291e5b200ac8c7c3b92560405160405180910390a45050565b600080610e78836106ff565b9050806001600160a01b0316846001600160a01b03161480610ebf57506001600160a01b0380821660009081526005602090815260408083209388168352929052205460ff165b80610ee35750836001600160a01b0316610ed88461046b565b6001600160a01b0316145b949350505050565b826001600160a01b0316610efe826106ff565b6001600160a01b031614610f245760405162461bcd60e51b815260040161050790611f03565b6001600160a01b038216610f865760405162461bcd60e51b8152602060048201526024808201527f4552433732313a207472616e7366657220746f20746865207a65726f206164646044820152637265737360e01b6064820152608401610507565b610f938383836001611364565b826001600160a01b0316610fa6826106ff565b6001600160a01b031614610fcc5760405162461bcd60e51b815260040161050790611f03565b600081815260046020908152604080832080546001600160a01b03199081169091556001600160a01b0387811680865260038552838620805460001901905590871680865283862080546001019055868652600290945282852080549092168417909155905184937fddf252ad1be2c89b69c2b068fc378daa952ba7f163c4a11628f55a4df523b3ef91a4505050565b611064611370565b6006805460ff191690557f5db9ee0a495bf2e6ff9c91a7834c1ba4fdd244a5e8aa4e537bd38aeae4b073aa335b6040516001600160a01b03909116815260200160405180910390a1565b60006110b9826106ff565b90506110c9816000846001611364565b6110d2826106ff565b600083815260046020908152604080832080546001600160a01b03199081169091556001600160a01b0385168085526003845282852080546000190190558785526002909352818420805490911690555192935084927fddf252ad1be2c89b69c2b068fc378daa952ba7f163c4a11628f55a4df523b3ef908390a45050565b6106fb8282604051806020016040528060008152506113b9565b6111736113ec565b6006805460ff191660011790557f62e78cea01bee320cd4e420270b5ea74000d11b0c9f74754ebdbfc544b05a2586110913390565b816001600160a01b0316836001600160a01b0316141561120a5760405162461bcd60e51b815260206004820152601960248201527f4552433732313a20617070726f766520746f2063616c6c6572000000000000006044820152606401610507565b6001600160a01b03838116600081815260056020908152604080832094871680845294825291829020805460ff191686151590811790915591519182527f17307eab39ab6107e8899845ad3d59bd9653f200f220920489ca2b5937696c31910160405180910390a3505050565b611282848484610eeb565b61128e84848484611432565b610bcf5760405162461bcd60e51b815260040161050790611eb1565b6060600880546103e890612067565b606060006112c68361153f565b600101905060008167ffffffffffffffff8111156112f457634e487b7160e01b600052604160045260246000fd5b6040519080825280601f01601f19166020018201604052801561131e576020820181803683370190505b5090508181016020015b600019016f181899199a1a9b1b9c1cb0b131b232b360811b600a86061a8153600a85049450846113575761135c565b611328565b509392505050565b610bcf84848484611617565b60065460ff1661066b5760405162461bcd60e51b815260206004820152601460248201527314185d5cd8589b194e881b9bdd081c185d5cd95960621b6044820152606401610507565b6113c3838361168a565b6113d06000848484611432565b6105a85760405162461bcd60e51b815260040161050790611eb1565b60065460ff161561066b5760405162461bcd60e51b815260206004820152601060248201526f14185d5cd8589b194e881c185d5cd95960821b6044820152606401610507565b60006001600160a01b0384163b1561153457604051630a85bd0160e11b81526001600160a01b0385169063150b7a0290611476903390899088908890600401611e14565b602060405180830381600087803b15801561149057600080fd5b505af19250505080156114c0575060408051601f3d908101601f191682019092526114bd91810190611d1e565b60015b61151a573d8080156114ee576040519150601f19603f3d011682016040523d82523d6000602084013e6114f3565b606091505b5080516115125760405162461bcd60e51b815260040161050790611eb1565b805181602001fd5b6001600160e01b031916630a85bd0160e11b149050610ee3565b506001949350505050565b60008072184f03e93ff9f4daa797ed6e38ed64bf6a1f0160401b831061157e5772184f03e93ff9f4daa797ed6e38ed64bf6a1f0160401b830492506040015b6d04ee2d6d415b85acef810000000083106115aa576d04ee2d6d415b85acef8100000000830492506020015b662386f26fc1000083106115c857662386f26fc10000830492506010015b6305f5e10083106115e0576305f5e100830492506008015b61271083106115f457612710830492506004015b60648310611606576064830492506002015b600a83106103d35760010192915050565b61162384848484611823565b60065460ff1615610bcf5760405162461bcd60e51b815260206004820152602b60248201527f4552433732315061757361626c653a20746f6b656e207472616e73666572207760448201526a1a1a5b19481c185d5cd95960aa1b6064820152608401610507565b6001600160a01b0382166116e05760405162461bcd60e51b815260206004820181905260248201527f4552433732313a206d696e7420746f20746865207a65726f20616464726573736044820152606401610507565b6000818152600260205260409020546001600160a01b0316156117455760405162461bcd60e51b815260206004820152601c60248201527f4552433732313a20746f6b656e20616c7265616479206d696e746564000000006044820152606401610507565b611753600083836001611364565b6000818152600260205260409020546001600160a01b0316156117b85760405162461bcd60e51b815260206004820152601c60248201527f4552433732313a20746f6b656e20616c7265616479206d696e746564000000006044820152606401610507565b6001600160a01b038216600081815260036020908152604080832080546001019055848352600290915280822080546001600160a01b0319168417905551839291907fddf252ad1be2c89b69c2b068fc378daa952ba7f163c4a11628f55a4df523b3ef908290a45050565b6001811115610bcf576001600160a01b03841615611869576001600160a01b03841660009081526003602052604081208054839290611863908490612024565b90915550505b6001600160a01b03831615610bcf576001600160a01b038316600090815260036020526040812080548392906118a090849061200c565b909155505050505050565b8280546118b790612067565b90600052602060002090601f0160209004810192826118d9576000855561191f565b82601f106118f257805160ff191683800117855561191f565b8280016001018555821561191f579182015b8281111561191f578251825591602001919060010190611904565b5061192b92915061192f565b5090565b5b8082111561192b5760008155600101611930565b600067ffffffffffffffff83111561195e5761195e6120d3565b611971601f8401601f1916602001611fdb565b905082815283838301111561198557600080fd5b828260208301376000602084830101529392505050565b80356001600160a01b03811681146119b357600080fd5b919050565b60008083601f8401126119c9578182fd5b50813567ffffffffffffffff8111156119e0578182fd5b6020830191508360208260051b85010111156119fb57600080fd5b9250929050565b600060208284031215611a13578081fd5b610c358261199c565b60008060408385031215611a2e578081fd5b611a378361199c565b9150611a456020840161199c565b90509250929050565b60008060008060608587031215611a63578182fd5b611a6c8561199c565b9350611a7a6020860161199c565b9250604085013567ffffffffffffffff811115611a95578283fd5b611aa1878288016119b8565b95989497509550505050565b600080600060608486031215611ac1578283fd5b611aca8461199c565b9250611ad86020850161199c565b9150604084013590509250925092565b60008060008060808587031215611afd578384fd5b611b068561199c565b9350611b146020860161199c565b925060408501359150606085013567ffffffffffffffff811115611b36578182fd5b8501601f81018713611b46578182fd5b611b5587823560208401611944565b91505092959194509250565b600080600080600060608688031215611b78578081fd5b611b818661199c565b9450602086013567ffffffffffffffff80821115611b9d578283fd5b611ba989838a016119b8565b90965094506040880135915080821115611bc1578283fd5b50611bce888289016119b8565b969995985093965092949392505050565b60008060408385031215611bf1578182fd5b611bfa8361199c565b91506020830135611c0a816120e9565b809150509250929050565b60008060408385031215611c27578182fd5b611c308361199c565b946020939093013593505050565b60006020808385031215611c50578182fd5b823567ffffffffffffffff80821115611c67578384fd5b818501915085601f830112611c7a578384fd5b813581811115611c8c57611c8c6120d3565b8060051b9150611c9d848301611fdb565b8181528481019084860184860187018a1015611cb7578788fd5b8795505b83861015611cd9578035835260019590950194918601918601611cbb565b5098975050505050505050565b600060208284031215611cf7578081fd5b8151610c35816120e9565b600060208284031215611d13578081fd5b8135610c35816120f7565b600060208284031215611d2f578081fd5b8151610c35816120f7565b600060208284031215611d4b578081fd5b813567ffffffffffffffff811115611d61578182fd5b8201601f81018413611d71578182fd5b610ee384823560208401611944565b600060208284031215611d91578081fd5b5035919050565b60008060408385031215611daa578182fd5b50508035926020909101359150565b60008151808452611dd181602086016020860161203b565b601f01601f19169290920160200192915050565b60008351611df781846020880161203b565b835190830190611e0b81836020880161203b565b01949350505050565b6001600160a01b0385811682528416602082015260408101839052608060608201819052600090611e4790830184611db9565b9695505050505050565b602081526000610c356020830184611db9565b6020808252602d908201527f4552433732313a2063616c6c6572206973206e6f7420746f6b656e206f776e6560408201526c1c881bdc88185c1c1c9bdd9959609a1b606082015260800190565b60208082526032908201527f4552433732313a207472616e7366657220746f206e6f6e20455243373231526560408201527131b2b4bb32b91034b6b83632b6b2b73a32b960711b606082015260800190565b60208082526025908201527f4552433732313a207472616e736665722066726f6d20696e636f72726563742060408201526437bbb732b960d91b606082015260800190565b60208082526026908201527f4d61696e7461696e65723a2063616c6c6572206973206e6f742061206d61696e6040820152653a30b4b732b960d11b606082015260800190565b60006040820184835260206040818501528185518084526060860191508287019350845b81811015611fce57845183529383019391830191600101611fb2565b5090979650505050505050565b604051601f8201601f1916810167ffffffffffffffff81118282101715612004576120046120d3565b604052919050565b6000821982111561201f5761201f6120bd565b500190565b600082821015612036576120366120bd565b500390565b60005b8381101561205657818101518382015260200161203e565b83811115610bcf5750506000910152565b600181811c9082168061207b57607f821691505b6020821081141561209c57634e487b7160e01b600052602260045260246000fd5b50919050565b60006000198214156120b6576120b66120bd565b5060010190565b634e487b7160e01b600052601160045260246000fd5b634e487b7160e01b600052604160045260246000fd5b80151581146106b657600080fd5b6001600160e01b0319811681146106b657600080fdfea2646970667358221220c4c557f2b389903516d0ee2399d826df93b83fe4dada94ad51e60221da1fc0bc64736f6c63430008040033",
  "linkReferences": {},
  "deployedLinkReferences": {}
}